{
  "contractName": "BAC",
  "abi": [
    {
      "inputs": [],
      "payable": false,
      "stateMutability": "nonpayable",
      "type": "constructor"
    },
    {
      "constant": false,
      "inputs": [
        {
          "name": "materialBatch",
          "type": "string"
        },
        {
          "name": "materialCode",
          "type": "string"
        },
        {
          "name": "materialWeight",
          "type": "string"
        },
        {
          "name": "urlCheckList",
          "type": "string"
        },
        {
          "name": "materialFarm",
          "type": "string"
        },
        {
          "name": "TUCAddress",
          "type": "address"
        }
      ],
      "name": "addBatch",
      "outputs": [],
      "payable": false,
      "stateMutability": "nonpayable",
      "type": "function"
    },
    {
      "constant": true,
      "inputs": [
        {
          "name": "id",
          "type": "uint256"
        }
      ],
      "name": "getBatchOfId",
      "outputs": [
        {
          "name": "materialBatch",
          "type": "string"
        },
        {
          "name": "materialCode",
          "type": "string"
        },
        {
          "name": "materialFarm",
          "type": "string"
        },
        {
          "name": "urlCheckList",
          "type": "string"
        },
        {
          "name": "TUCAddress",
          "type": "address"
        },
        {
          "name": "addTime",
          "type": "uint256"
        }
      ],
      "payable": false,
      "stateMutability": "view",
      "type": "function"
    },
    {
      "constant": true,
      "inputs": [],
      "name": "getNumberOfBatchs",
      "outputs": [
        {
          "name": "numberOfBatchs",
          "type": "uint256"
        }
      ],
      "payable": false,
      "stateMutability": "view",
      "type": "function"
    },
    {
      "constant": true,
      "inputs": [
        {
          "name": "productBatch",
          "type": "string"
        }
      ],
      "name": "getAddressOfBatch",
      "outputs": [
        {
          "name": "addr",
          "type": "address"
        }
      ],
      "payable": false,
      "stateMutability": "view",
      "type": "function"
    },
    {
      "constant": false,
      "inputs": [
        {
          "name": "addr",
          "type": "address"
        }
      ],
      "name": "addUser",
      "outputs": [],
      "payable": false,
      "stateMutability": "nonpayable",
      "type": "function"
    },
    {
      "constant": false,
      "inputs": [
        {
          "name": "addr",
          "type": "address"
        }
      ],
      "name": "removeUser",
      "outputs": [],
      "payable": false,
      "stateMutability": "nonpayable",
      "type": "function"
    },
    {
      "constant": true,
      "inputs": [
        {
          "name": "addr",
          "type": "address"
        }
      ],
      "name": "checkUser",
      "outputs": [
        {
          "name": "result",
          "type": "bool"
        }
      ],
      "payable": false,
      "stateMutability": "view",
      "type": "function"
    },
    {
      "constant": false,
      "inputs": [],
      "name": "deleteContract",
      "outputs": [],
      "payable": false,
      "stateMutability": "nonpayable",
      "type": "function"
    }
  ],
  "bytecode": "0x608060405234801561001057600080fd5b5033600560006101000a81548173ffffffffffffffffffffffffffffffffffffffff021916908373ffffffffffffffffffffffffffffffffffffffff16021790555060016004819055506110b4806100696000396000f30060806040526004361061008e576000357c0100000000000000000000000000000000000000000000000000000000900463ffffffff1680631e9d48cf14610093578063421b2d8b146100ee5780635a58cd4c146101315780639857518814610148578063d4df11ac1461018b578063efcd3f4f146103af578063fdc0595d14610458578063feb5e62714610483575b600080fd5b34801561009f57600080fd5b506100d4600480360381019080803573ffffffffffffffffffffffffffffffffffffffff169060200190929190505050610624565b604051808215151515815260200191505060405180910390f35b3480156100fa57600080fd5b5061012f600480360381019080803573ffffffffffffffffffffffffffffffffffffffff169060200190929190505050610679565b005b34801561013d57600080fd5b5061014661072f565b005b34801561015457600080fd5b50610189600480360381019080803573ffffffffffffffffffffffffffffffffffffffff1690602001909291905050506107c6565b005b34801561019757600080fd5b506101b66004803603810190808035906020019092919050505061087c565b60405180806020018060200180602001806020018773ffffffffffffffffffffffffffffffffffffffff1673ffffffffffffffffffffffffffffffffffffffff16815260200186815260200185810385528b818151815260200191508051906020019080838360005b8381101561023a57808201518184015260208101905061021f565b50505050905090810190601f1680156102675780820380516001836020036101000a031916815260200191505b5085810384528a818151815260200191508051906020019080838360005b838110156102a0578082015181840152602081019050610285565b50505050905090810190601f1680156102cd5780820380516001836020036101000a031916815260200191505b50858103835289818151815260200191508051906020019080838360005b838110156103065780820151818401526020810190506102eb565b50505050905090810190601f1680156103335780820380516001836020036101000a031916815260200191505b50858103825288818151815260200191508051906020019080838360005b8381101561036c578082015181840152602081019050610351565b50505050905090810190601f1680156103995780820380516001836020036101000a031916815260200191505b509a505050505050505050505060405180910390f35b3480156103bb57600080fd5b50610416600480360381019080803590602001908201803590602001908080601f0160208091040260200160405190810160405280939291908181526020018383808284378201915050505050509192919290505050610ba4565b604051808273ffffffffffffffffffffffffffffffffffffffff1673ffffffffffffffffffffffffffffffffffffffff16815260200191505060405180910390f35b34801561046457600080fd5b5061046d610c39565b6040518082815260200191505060405180910390f35b34801561048f57600080fd5b50610622600480360381019080803590602001908201803590602001908080601f0160208091040260200160405190810160405280939291908181526020018383808284378201915050505050509192919290803590602001908201803590602001908080601f0160208091040260200160405190810160405280939291908181526020018383808284378201915050505050509192919290803590602001908201803590602001908080601f0160208091040260200160405190810160405280939291908181526020018383808284378201915050505050509192919290803590602001908201803590602001908080601f0160208091040260200160405190810160405280939291908181526020018383808284378201915050505050509192919290803590602001908201803590602001908080601f0160208091040260200160405190810160405280939291908181526020018383808284378201915050505050509192919290803573ffffffffffffffffffffffffffffffffffffffff169060200190929190505050610c46565b005b60008060008373ffffffffffffffffffffffffffffffffffffffff1673ffffffffffffffffffffffffffffffffffffffff16815260200190815260200160002060009054906101000a900460ff169050919050565b600560009054906101000a900473ffffffffffffffffffffffffffffffffffffffff1673ffffffffffffffffffffffffffffffffffffffff163373ffffffffffffffffffffffffffffffffffffffff161415156106d557600080fd5b60016000808373ffffffffffffffffffffffffffffffffffffffff1673ffffffffffffffffffffffffffffffffffffffff16815260200190815260200160002060006101000a81548160ff02191690831515021790555050565b600560009054906101000a900473ffffffffffffffffffffffffffffffffffffffff1673ffffffffffffffffffffffffffffffffffffffff163373ffffffffffffffffffffffffffffffffffffffff1614151561078b57600080fd5b600560009054906101000a900473ffffffffffffffffffffffffffffffffffffffff1673ffffffffffffffffffffffffffffffffffffffff16ff5b600560009054906101000a900473ffffffffffffffffffffffffffffffffffffffff1673ffffffffffffffffffffffffffffffffffffffff163373ffffffffffffffffffffffffffffffffffffffff1614151561082257600080fd5b60008060008373ffffffffffffffffffffffffffffffffffffffff1673ffffffffffffffffffffffffffffffffffffffff16815260200190815260200160002060006101000a81548160ff02191690831515021790555050565b606080606080600080600160008881526020019081526020016000206000018054600181600116156101000203166002900480601f01602080910402602001604051908101604052809291908181526020018280546001816001161561010002031660029004801561092f5780601f106109045761010080835404028352916020019161092f565b820191906000526020600020905b81548152906001019060200180831161091257829003601f168201915b50505050509550600160008881526020019081526020016000206002018054600181600116156101000203166002900480601f0160208091040260200160405190810160405280929190818152602001828054600181600116156101000203166002900480156109e05780601f106109b5576101008083540402835291602001916109e0565b820191906000526020600020905b8154815290600101906020018083116109c357829003601f168201915b50505050509450600160008881526020019081526020016000206004018054600181600116156101000203166002900480601f016020809104026020016040519081016040528092919081815260200182805460018160011615610100020316600290048015610a915780601f10610a6657610100808354040283529160200191610a91565b820191906000526020600020905b815481529060010190602001808311610a7457829003601f168201915b50505050509350600160008881526020019081526020016000206001018054600181600116156101000203166002900480601f016020809104026020016040519081016040528092919081815260200182805460018160011615610100020316600290048015610b425780601f10610b1757610100808354040283529160200191610b42565b820191906000526020600020905b815481529060010190602001808311610b2557829003601f168201915b505050505092506001600088815260200190815260200160002060050160009054906101000a900473ffffffffffffffffffffffffffffffffffffffff1691506001600088815260200190815260200160002060060154905091939550919395565b60006002826040518082805190602001908083835b602083101515610bde5780518252602082019150602081019050602083039250610bb9565b6001836020036101000a038019825116818451168082178552505050505050905001915050908152602001604051809103902060009054906101000a900473ffffffffffffffffffffffffffffffffffffffff169050919050565b6000600160045403905090565b600560009054906101000a900473ffffffffffffffffffffffffffffffffffffffff1673ffffffffffffffffffffffffffffffffffffffff163373ffffffffffffffffffffffffffffffffffffffff16141515610ca257600080fd5b600073ffffffffffffffffffffffffffffffffffffffff166002876040518082805190602001908083835b602083101515610cf25780518252602082019150602081019050602083039250610ccd565b6001836020036101000a038019825116818451168082178552505050505050905001915050908152602001604051809103902060009054906101000a900473ffffffffffffffffffffffffffffffffffffffff1673ffffffffffffffffffffffffffffffffffffffff16141515610d6857600080fd5b6000600360008373ffffffffffffffffffffffffffffffffffffffff1673ffffffffffffffffffffffffffffffffffffffff168152602001908152602001600020805460018160011615610100020316600290049050141515610dca57600080fd5b856001600060045481526020019081526020016000206000019080519060200190610df6929190610fe3565b50846001600060045481526020019081526020016000206002019080519060200190610e23929190610fe3565b50826001600060045481526020019081526020016000206001019080519060200190610e50929190610fe3565b50816001600060045481526020019081526020016000206004019080519060200190610e7d929190610fe3565b50836001600060045481526020019081526020016000206003019080519060200190610eaa929190610fe3565b508060016000600454815260200190815260200160002060050160006101000a81548173ffffffffffffffffffffffffffffffffffffffff021916908373ffffffffffffffffffffffffffffffffffffffff1602179055504260016000600454815260200190815260200160002060060181905550806002876040518082805190602001908083835b602083101515610f585780518252602082019150602081019050602083039250610f33565b6001836020036101000a038019825116818451168082178552505050505050905001915050908152602001604051809103902060006101000a81548173ffffffffffffffffffffffffffffffffffffffff021916908373ffffffffffffffffffffffffffffffffffffffff160217905550600460008154809291906001019190505550505050505050565b828054600181600116156101000203166002900490600052602060002090601f016020900481019282601f1061102457805160ff1916838001178555611052565b82800160010185558215611052579182015b82811115611051578251825591602001919060010190611036565b5b50905061105f9190611063565b5090565b61108591905b80821115611081576000816000905550600101611069565b5090565b905600a165627a7a723058208815cb5bb9ff9c04715fb7c8ff5df90e6e1248f77ebd919e834478bc2f0134170029",
  "source": "pragma solidity ^0.4.23;\r\n\r\ncontract BAC {\r\n\r\n  // Mapping from user address to boolean type\r\n  mapping(address => bool) isAuthorized;\r\n\r\n  // Define struct\r\n  struct batch {\r\n    string _materialBatch;\r\n    string _urlCheckList;\r\n    string _materialCode;\r\n    string _materialWeight;\r\n    string _materialFarm;\r\n    address _TUCAddress;\r\n    uint _addTime;\r\n  }\r\n\r\n  mapping(uint => batch) _batchs;\r\n\r\n  mapping(string => address) _batchToAddress;\r\n\r\n  mapping(address => string) _addressToBatch;\r\n\r\n  uint _numberOfBatchs;\r\n\r\n  address _productAdmin;\r\n\r\n  // As a prerequisite for some functions\r\n  modifier onlyAdmin {\r\n    require(msg.sender == _productAdmin);\r\n    _;\r\n  }\r\n\r\n  modifier onlyAuthorized(address addr) {\r\n    require(isAuthorized[addr] == true);\r\n    _;\r\n  }\r\n\r\n  // Constructor function\r\n  constructor() public {\r\n    _productAdmin = msg.sender;\r\n    _numberOfBatchs = 1;\r\n  }\r\n\r\n  // Add production batch information\r\n  function addBatch( string materialBatch, string materialCode, string materialWeight,string urlCheckList, string materialFarm, address TUCAddress) public onlyAdmin {\r\n\r\n    require(_batchToAddress[materialBatch] == address(0));\r\n    require(bytes(_addressToBatch[TUCAddress]).length == 0);\r\n\r\n    //require(bytes(productBatch).length == 12);\r\n\r\n    _batchs[_numberOfBatchs]._materialBatch = materialBatch;\r\n    _batchs[_numberOfBatchs]._materialCode = materialCode;\r\n     _batchs[_numberOfBatchs]._urlCheckList = urlCheckList;\r\n      _batchs[_numberOfBatchs]._materialFarm = materialFarm;\r\n      _batchs[_numberOfBatchs]._materialWeight = materialWeight;\r\n    _batchs[_numberOfBatchs]._TUCAddress = TUCAddress;\r\n    _batchs[_numberOfBatchs]._addTime = now;\r\n\r\n    _batchToAddress[materialBatch] = TUCAddress;\r\n\r\n    _numberOfBatchs++;\r\n\r\n  }\r\n\r\n  // Get batch information by id\r\n  function getBatchOfId(uint id) constant public returns( string materialBatch,string materialCode, string materialFarm,string urlCheckList, address TUCAddress, uint addTime) {\r\n\r\n    // productBatch = _batchs[id]._productBatch;\r\n    materialBatch = _batchs[id]._materialBatch;\r\n    materialCode = _batchs[id]._materialCode;\r\n    materialFarm = _batchs[id]._materialFarm;\r\n    urlCheckList = _batchs[id]._urlCheckList;\r\n    TUCAddress = _batchs[id]._TUCAddress;\r\n    addTime = _batchs[id]._addTime;\r\n\r\n  }\r\n\r\n  // Get the number of batches\r\n  function getNumberOfBatchs() constant public returns(uint numberOfBatchs) {\r\n    numberOfBatchs = _numberOfBatchs - 1;\r\n  }\r\n\r\n  function getAddressOfBatch(string productBatch) constant public returns(address addr) {\r\n    addr = _batchToAddress[productBatch];\r\n  }\r\n\r\n  // Add user to authorization list\r\n  function addUser(address addr) public onlyAdmin {\r\n    isAuthorized[addr] = true;\r\n  }\r\n\r\n  // Remove user\r\n  function removeUser(address addr) public onlyAdmin {\r\n    isAuthorized[addr] = false;\r\n  }\r\n\r\n  // Check if the user is authorized\r\n  function checkUser(address addr) constant public returns(bool result) {\r\n    result = isAuthorized[addr];\r\n  }\r\n\r\n  // Destroy the contract\r\n  function deleteContract() onlyAdmin public {\r\n    selfdestruct(_productAdmin);\r\n  }\r\n\r\n}\r\n",
  "sourcePath": "/Users/macbook/Desktop/DemoSystem/supplieschain/contracts/BAC.sol",
  "compiler": {
    "name": "solc",
    "version": "0.4.23+commit.124ca40d.Emscripten.clang"
  },
  "schemaVersion": "3.4.1",
  "updatedAt": "2021-10-05T09:57:42.954Z",
  "devdoc": {
    "methods": {}
  },
  "userdoc": {
    "methods": {}
  }
}